{
  "contractName": "Crud",
  "abi": [
    {
      "constant": true,
      "inputs": [],
      "name": "nextId",
      "outputs": [
        {
          "internalType": "uint256",
          "name": "",
          "type": "uint256"
        }
      ],
      "payable": false,
      "stateMutability": "view",
      "type": "function"
    },
    {
      "constant": true,
      "inputs": [
        {
          "internalType": "uint256",
          "name": "",
          "type": "uint256"
        }
      ],
      "name": "users",
      "outputs": [
        {
          "internalType": "uint256",
          "name": "id",
          "type": "uint256"
        },
        {
          "internalType": "string",
          "name": "name",
          "type": "string"
        }
      ],
      "payable": false,
      "stateMutability": "view",
      "type": "function"
    },
    {
      "constant": false,
      "inputs": [
        {
          "internalType": "string",
          "name": "name",
          "type": "string"
        }
      ],
      "name": "create",
      "outputs": [],
      "payable": false,
      "stateMutability": "nonpayable",
      "type": "function"
    },
    {
      "constant": true,
      "inputs": [
        {
          "internalType": "uint256",
          "name": "id",
          "type": "uint256"
        }
      ],
      "name": "read",
      "outputs": [
        {
          "internalType": "uint256",
          "name": "",
          "type": "uint256"
        },
        {
          "internalType": "string",
          "name": "",
          "type": "string"
        }
      ],
      "payable": false,
      "stateMutability": "view",
      "type": "function"
    },
    {
      "constant": false,
      "inputs": [
        {
          "internalType": "uint256",
          "name": "id",
          "type": "uint256"
        },
        {
          "internalType": "string",
          "name": "name",
          "type": "string"
        }
      ],
      "name": "update",
      "outputs": [],
      "payable": false,
      "stateMutability": "nonpayable",
      "type": "function"
    },
    {
      "constant": false,
      "inputs": [
        {
          "internalType": "uint256",
          "name": "id",
          "type": "uint256"
        }
      ],
      "name": "destroy",
      "outputs": [],
      "payable": false,
      "stateMutability": "nonpayable",
      "type": "function"
    }
  ],
  "bytecode": "0x608060405234801561001057600080fd5b5061086f806100206000396000f3fe608060405234801561001057600080fd5b50600436106100625760003560e01c8063365b98b21461006757806361b8ce8c146101155780639d11877014610133578063b6a46b3b14610161578063ed2e5a971461021c578063f745630f146102ca575b600080fd5b6100936004803603602081101561007d57600080fd5b810190808035906020019092919050505061038f565b6040518083815260200180602001828103825283818151815260200191508051906020019080838360005b838110156100d95780820151818401526020810190506100be565b50505050905090810190601f1680156101065780820380516001836020036101000a031916815260200191505b50935050505060405180910390f35b61011d610458565b6040518082815260200191505060405180910390f35b61015f6004803603602081101561014957600080fd5b810190808035906020019092919050505061045e565b005b61021a6004803603602081101561017757600080fd5b810190808035906020019064010000000081111561019457600080fd5b8201836020820111156101a657600080fd5b803590602001918460018302840111640100000000831117156101c857600080fd5b91908080601f016020809104026020016040519081016040528093929190818152602001838380828437600081840152601f19601f820116905080830192505050505050509192919290505050610497565b005b6102486004803603602081101561023257600080fd5b810190808035906020019092919050505061051a565b6040518083815260200180602001828103825283818151815260200191508051906020019080838360005b8381101561028e578082015181840152602081019050610273565b50505050905090810190601f1680156102bb5780820380516001836020036101000a031916815260200191505b50935050505060405180910390f35b61038d600480360360408110156102e057600080fd5b81019080803590602001909291908035906020019064010000000081111561030757600080fd5b82018360208201111561031957600080fd5b8035906020019184600183028401116401000000008311171561033b57600080fd5b91908080601f016020809104026020016040519081016040528093929190818152602001838380828437600081840152601f19601f82011690508083019250505050505050919291929050505061064e565b005b6000818154811061039c57fe5b9060005260206000209060020201600091509050806000015490806001018054600181600116156101000203166002900480601f01602080910402602001604051908101604052809291908181526020018280546001816001161561010002031660029004801561044e5780601f106104235761010080835404028352916020019161044e565b820191906000526020600020905b81548152906001019060200180831161043157829003601f168201915b5050505050905082565b60015481565b6000818154811061046b57fe5b906000526020600020906002020160008082016000905560018201600061049291906106cd565b505050565b6000604051806040016040528060015481526020018381525090806001815401808255809150509060018203906000526020600020906002020160009091929091909150600082015181600001556020820151816001019080519060200190610501929190610715565b5050505060016000815480929190600101919050555050565b6000606060008090505b60008054905081101561064757836000828154811061053f57fe5b906000526020600020906002020160000154141561063a576000818154811061056457fe5b9060005260206000209060020201600001546000828154811061058357fe5b9060005260206000209060020201600101808054600181600116156101000203166002900480601f0160208091040260200160405190810160405280929190818152602001828054600181600116156101000203166002900480156106295780601f106105fe57610100808354040283529160200191610629565b820191906000526020600020905b81548152906001019060200180831161060c57829003601f168201915b505050505090509250925050610649565b8080600101915050610524565b505b915091565b60008090505b6000805490508110156106c857826000828154811061066f57fe5b90600052602060002090600202016000015414156106bb57816000828154811061069557fe5b906000526020600020906002020160010190805190602001906106b9929190610795565b505b8080600101915050610654565b505050565b50805460018160011615610100020316600290046000825580601f106106f35750610712565b601f0160209004906000526020600020908101906107119190610815565b5b50565b828054600181600116156101000203166002900490600052602060002090601f016020900481019282601f1061075657805160ff1916838001178555610784565b82800160010185558215610784579182015b82811115610783578251825591602001919060010190610768565b5b5090506107919190610815565b5090565b828054600181600116156101000203166002900490600052602060002090601f016020900481019282601f106107d657805160ff1916838001178555610804565b82800160010185558215610804579182015b828111156108035782518255916020019190600101906107e8565b5b5090506108119190610815565b5090565b61083791905b8082111561083357600081600090555060010161081b565b5090565b9056fea265627a7a723158205f35bcc608c99806ff0e7003cab9fe677199e0a025c1b0c1f7e4dc8d81b5cb3364736f6c63430005100032",
  "source": "// SPDX-License-Identifier: MIT\npragma solidity >=0.4.21 <0.7.0;\n\ncontract Crud {\n\tstruct User {\n\t\tuint id;\n\t\tstring name;\n  \t}\n\n\tUser[] public users;\n\n\tuint public nextId;\n\n\tfunction create(string memory name) public {\n\t\tusers.push(User(nextId, name));\n\n\t\tnextId++;\n\t}\n\n\tfunction read(uint id) public view returns(uint, string memory) {\n\t\tfor (uint i = 0; i < users.length; i++) {\n\t\t\tif (users[i].id == id) {\n\t\t\t\treturn (users[i].id, users[i].name);\n\t\t\t}\n\t\t}\n\t}\n\n\tfunction update(uint id, string memory name) public {\n\t\tfor (uint i = 0; i < users.length; i++) {\n\t\t\tif (users[i].id == id) {\n\t\t\t\tusers[i].name = name;\n\t\t\t}\n\t\t}\n\t}\n\n\tfunction destroy(uint id) public {\n\t\tdelete users[id];\n\t}\n}\n",
  "sourcePath": "/home/centro/Desktop/Blockchain/dapp-crud/contracts/Crud.sol",
  "compiler": {
    "name": "solc",
    "version": "0.5.16+commit.9c3226ce.Emscripten.clang"
  },
  "schemaVersion": "3.0.23",
  "updatedAt": "2020-07-29T00:50:54.826Z",
  "devdoc": {
    "methods": {}
  },
  "userdoc": {
    "methods": {}
  }
}